{
    "contractName": "Counter",
    "abi": [
        {
            "inputs": [],
            "name": "count",
            "outputs": [
                {
                    "internalType": "uint256",
                    "name": "",
                    "type": "uint256"
                }
            ],
            "stateMutability": "view",
            "type": "function"
        },
        {
            "inputs": [],
            "name": "decrement",
            "outputs": [],
            "stateMutability": "nonpayable",
            "type": "function"
        },
        {
            "inputs": [],
            "name": "increment",
            "outputs": [],
            "stateMutability": "nonpayable",
            "type": "function"
        }
    ],
    "bytecode": "6080806040523460135760da908160188239f35b5f80fdfe60808060405260043610156011575f80fd5b5f3560e01c90816306661abd14608d575080632baeceb714606f5763d09de08a146039575f80fd5b34606b575f366003190112606b575f54600181018091116057575f55005b634e487b7160e01b5f52601160045260245ffd5b5f80fd5b34606b575f366003190112606b575f545f1981019081116057575f55005b34606b575f366003190112606b576020905f548152f3fea26469706673582212202c8d9ba5f5cff78d9f64ba228eac6ea7c690d6c9f78d61273a3adf83c4206cfa64736f6c634300081e0033",
    "sourcePath": "d:/Project/dappTask2/contracts/Counter.sol",
    "compiler": {
        "name": "solc",
        "version": "0.8.30+commit.73712a01"
    },
    "functionHashes": {
        "count()": "06661abd",
        "decrement()": "2baeceb7",
        "increment()": "d09de08a"
    },
    "gasEstimates": {
        "creation": {
            "codeDepositCost": "43600",
            "executionCost": "99",
            "totalCost": "43699"
        },
        "external": {
            "count()": "2247",
            "decrement()": "24388",
            "increment()": "24405"
        }
    }
}